:020000040800F2
:100000000000012075160008C7160008D516000864
:10001000DB160008E1160008E716000800000000E3
:10002000000000000000000000000000ED160008C5
:10003000FB16000800000000091700081717000849
:10004000C5160008C5160008C5160008C516000824
:10005000C5160008C5160008C5160008C516000814
:10006000C5160008C5160008C5160008C516000804
:10007000C5160008C5160008C5160008C5160008F4
:10008000C5160008C5160008C5160008C5160008E4
:10009000C5160008C5160008C5160008C5160008D4
:1000A000C5160008C5160008C5160008C5160008C4
:1000B000C5160008C5160008C5160008C5160008B4
:1000C000C5160008C5160008C5160008C5160008A4
:1000D000C516000881190008F5190008C5160008A2
:1000E000C5160008C5160008C5160008C516000884
:1000F000C5160008C5160008C5160008C516000874
:10010000C5160008C5160008C5160008C516000863
:10011000C5160008C5160008C5160008C516000853
:10012000C5160008C5160008C5160008C516000843
:10013000C5160008C5160008C5160008C516000833
:10014000C5160008C5160008C5160008C516000823
:10015000C5160008C5160008C5160008C516000813
:10016000C5160008C5160008C5160008C516000803
:10017000C5160008C5160008C5160008C5160008F3
:08018000C5160008C5160008B1
:1001880010B5054C237833B9044B13B10448AFF3C9
:1001980000800123237010BD24000020000000000F
:1001A800F81A000808B5034B1BB103490348AFF31D
:1001B800008008BD0000000028000020F81A000890
:1001C80080B485B000AF78600023FB730023BB7355
:1001D8000F237B737B68DB78002B39D0274BDB68D8
:1001E800DB431B0ADBB203F00703FB73FB7BC3F1A2
:1001F8000403BB737A7BFB7B42FA03F37B737B6854
:100208005B781A46BB7B02FA03F3FB737B689A7828
:100218007B7B1340DAB2FB7B1343FB73FB7B1B0135
:10022800FB73174A7B681B781344FA7B83F8002317
:10023800134A7B681B785B09DBB218467B681B781E
:1002480003F01F03012101FA03F342F820300FE005
:100258000B497B681B785B09DBB218467B681B7807
:1002680003F01F0301229A4000F1200341F82320E4
:1002780000BF1437BD465DF8047B704700ED00E011
:1002880000E100E080B487B000AF786039600023F7
:100298007B6100233B610023FB6000237B6176E0E8
:1002A80001227B6902FA03F33B613B681A683B69E8
:1002B8001340FB60FA683B699A4265D17B681A680B
:1002C8007B695B00032101FA03F3DB431A407B6877
:1002D8001A607B681A683B681B7919467B695B0062
:1002E80001FA03F31A437B681A603B681B79012BF8
:1002F80003D03B681B79022B2ED17B689A687B69F7
:100308005B00032101FA03F3DB431A407B689A6020
:100318007B689A683B685B7919467B695B0001FAE0
:1003280003F31A437B689A607B685A687B699BB2BF
:10033800194601238B40DB431A407B685A607B686F
:100348005B683A68927911467A6992B201FA02F2C8
:1003580092B21A437B685A607B68DA687B699BB201
:100368005B00032101FA03F3DB431A407B68DA6080
:100378007B68DA683B68DB7919467B695B0001FAC0
:1003880003F31A437B68DA607B6901337B617B691D
:100398000F2B85D900BF1C37BD465DF8047B70471D
:1003A80080B483B000AF78600B467B807B687A8826
:1003B8001A8300BF0C37BD465DF8047B704780B4D4
:1003C80083B000AF78600B467B807B687A885A835D
:1003D80000BF0C37BD465DF8047B704780B485B01C
:1003E80000AF78600B467B8013467B700023FB6070
:1003F8000023BB607A787B8803F007039B0002FA2E
:1004080003F3FB607B88DB089BB218467B88DB081C
:100418009BB21A467B68083253F822207B8803F087
:1004280007039B000F2101FA03F3DB4302EA0301F0
:100438007B6800F1080243F822107B88DB089BB236
:100448001A467B68083253F82220FB681343BB60C6
:100458007B88DB089BB21A467B680832B96843F888
:10046800221000BF1437BD465DF8047B70470000BA
:1004780080B400AF124A124B1B6843F001031360AB
:100488000F4B00229A600E4A0D4B1B6823F0A163A4
:1004980023F4803313600A4B0A4A5A60084B0A4A0D
:1004A800C3F88420064A064B1B6823F48023136094
:1004B800034B0022DA6000BFBD465DF8047B70473D
:1004C80000380240103000240030002080B483B08F
:1004D80000AF0346FB71044AFB79136000BF0C3779
:1004E800BD465DF8047B70470000474280B485B084
:1004F80000AFF860B9607A603B600B497B689A018D
:10050800BB681A433B685B08013B1B041A43FB6842
:100518001A43BB691B0613434B6000BF1437BD4623
:100528005DF8047B704700BF0038024080B483B098
:1005380000AF0346FB71044AFB79136000BF0C3718
:10054800BD465DF8047B70476000474280B485B0C3
:1005580000AF78600023FB60094B9B68FB60FB6879
:1005680023F00303FB60FA687B681343FB60044ACB
:10057800FB68936000BF1437BD465DF8047B704785
:100588000038024080B400AF054B9B68DBB203F033
:100598000C03DBB21846BD465DF8047B704700BF0C
:1005A8000038024080B485B000AF78600023FB605B
:1005B800094B9B68FB60FB6823F0F003FB60FA685B
:1005C8007B681343FB60044AFB68936000BF1437E1
:1005D800BD465DF8047B70470038024080B485B0A2
:1005E80000AF78600023FB60094B9B68FB60FB68E9
:1005F80023F4E053FB60FA687B681343FB60044A0A
:10060800FB68936000BF1437BD465DF8047B7047F4
:100618000038024080B485B000AF78600023FB60EA
:100628000A4B9B68FB60FB6823F46043FB607B68B4
:10063800DB00FA681343FB60044AFB68936000BF61
:100648001437BD465DF8047B704700BF0038024090
:1006580080B489B000AF78600023BB6100237B6160
:100668000023FB6102233B610023FB600223BB6084
:10067800474B9B6803F00C03BB61BB69042B07D095
:10068800082B09D0002B3DD17B68424A1A603DE017
:100698007B68414A1A6039E03D4B5B689B0D03F06B
:1006A8000103FB603A4B5B6803F03F03BB60FB68E8
:1006B800002B0CD0384ABB68B2FBF3F3344A5268BB
:1006C8009209C2F3080202FB03F3FB610BE0314A13
:1006D800BB68B2FBF3F32E4A52689209C2F30802D0
:1006E80002FB03F3FB612A4B5B681B0C03F003035B
:1006F80001335B003B61FA693B69B2FBF3F27B684B
:100708001A6003E07B68234A1A6000BF204B9B688D
:1007180003F0F003BB61BB691B09BB611F4ABB69DE
:1007280013441B78DBB27B617B681A687B69DA400B
:100738007B685A60164B9B6803F4E053BB61BB6946
:100748009B0ABB61154ABB6913441B78DBB27B610A
:100758007B685A687B69DA407B689A600C4B9B68B7
:1007680003F46043BB61BB695B0BBB610B4ABB69AC
:1007780013441B78DBB27B617B685A687B69DA407B
:100788007B68DA6000BF2437BD465DF8047B70479C
:10079800003802400024F40040787D010000002069
:1007A80080B483B000AF78600B46FB70FB78002BF9
:1007B80006D00A49094B1A6B7B6813430B6306E0A2
:1007C8000649064B1A6B7B68DB4313400B6300BF7B
:1007D8000C37BD465DF8047B704700BF0038024007
:1007E80080B483B000AF78600B46FB70FB78002BB9
:1007F80006D00A49094B1A6C7B6813430B6406E060
:100808000649064B1A6C7B68DB4313400B6400BF38
:100818000C37BD465DF8047B704700BF00380240C6
:1008280080B483B000AF78600B46FB70FB78002B78
:1008380006D00A49094B5A6C7B6813434B6406E09F
:100848000649064B5A6C7B68DB4313404B6400BF78
:100858000C37BD465DF8047B704700BF0038024086
:1008680080B487B000AF0346FB710023FB60002310
:100878007B610023FB74FB795B09DBB2FB60FB68DF
:10088800012B03D1124B1B687B6109E0FB68022B2B
:1008980003D10F4B1B6F7B6102E00D4B5B6F7B61DC
:1008A800FB7903F01F03FB607A69FB6822FA03F304
:1008B80003F00103002B02D00123FB7401E00023A5
:1008C800FB74FB7C18461C37BD465DF8047B7047FB
:1008D8000038024080B58AB000AF786039600023E4
:1008E8007B6200233B620023FB610023BB617B68C2
:1008F8001B8A9BB27B627B6A23F440537B623B6812
:10090800DB881A467B6A13437B627B6A9AB27B68F0
:100918001A827B689B899BB27B627B6A23F4B05303
:1009280023F00C037B623B689A883B681B8913435E
:100938009AB23B685B8913439BB21A467B6A13439E
:100948007B627B6A9AB27B689A817B689B8A9BB23E
:100958007B627B6A23F440737B623B689B891A46FF
:100968007B6A13437B627B6A9AB27B689A8207F13F
:1009780008031846FFF76CFE7B68304A934203D0A1
:100988007B682F4A934202D17B693B6201E03B6955
:100998003B627B689B899BB21BB2002B0CDA3A6ADC
:1009A80013469B0013449A001A443B681B685B007B
:1009B800B2FBF3F3FB610BE03A6A13469B00134466
:1009C8009A001A443B681B689B00B2FBF3F3FB6177
:1009D800FB691C4AA2FB03235B091B017B627B6A40
:1009E8001B09642202FB03F3FA69D31ABB617B6813
:1009F8009B899BB21BB2002B0CDABB69DB0032333C
:100A0800104AA2FB03235B0903F007037A6A134326
:100A18007B620BE0BB691B0132330A4AA2FB03234A
:100A28005B0903F00F037A6A13437B627B6A9AB20D
:100A38007B681A8100BF2837BD4680BD0010014081
:100A4800001401401F85EB5180B483B000AF78607B
:100A58007B684FF416521A607B6800229A807B6884
:100A68000022DA807B6800221A817B680C225A8176
:100A78007B6800229A8100BF0C37BD465DF8047B75
:100A8800704780B483B000AF78600B46FB70FB788A
:100A9800002B08D07B689B899BB243F400539AB221
:100AA8007B689A8107E07B689B899BB223F400539B
:100AB8009AB27B689A8100BF0C37BD465DF8047B0B
:100AC800704780B483B000AF78600B467B807B882A
:100AD800C3F308039AB27B689A8000BF0C37BD46FF
:100AE8005DF8047B704780B483B000AF78607B68A2
:100AF8009B889BB2C3F308039BB218460C37BD46CC
:100B08005DF8047B704780B487B000AF78600B460F
:100B18007B8013467B7000233B610023FB6000232E
:100B2800BB6000237B617B687B617B88DBB25B09F0
:100B3800DBB23B617B8803F01F03FB600122FB688B
:100B480002FA03F3BB603B69012B03D17B690C33C9
:100B58007B6109E03B69022B03D17B6910337B6120
:100B680002E07B6914337B617B78002B06D07B69BC
:100B78007A691168BA680A431A6006E07B697A697B
:100B88001168BA68D2430A401A6000BF1C37BD46D4
:100B98005DF8047B704780B485B000AF78600B4681
:100BA8007B800023FB737B681B889AB27B88134089
:100BB8009BB2002B02D00123FB7301E00023FB73DF
:100BC800FB7B18461437BD465DF8047B704780B43C
:100BD80087B000AF78600B467B800023FB60002362
:100BE8007B610023BB600023FB747B88DBB25B095D
:100BF800DBB2BB607B8803F01F037B6101227B694A
:100C080002FA03F37B61BB68012B07D17B689B89E0
:100C18009BB21A467B6913407B6111E0BB68022BCB
:100C280007D17B681B8A9BB21A467B6913407B619C
:100C380006E07B689B8A9BB21A467B6913407B61FE
:100C48007B881B0A9BB2FB600122FB6802FA03F354
:100C5800FB607B681B889BB21A46FB681340FB60ED
:100C68007B69002B05D0FB68002B02D00123FB74A5
:100C780001E00023FB74FB7C18461C37BD465DF879
:100C8800047B704780B485B000AF78600B467B80EA
:100C98000023FB810023BB817B881B0AFB81FB8926
:100CA800012202FA03F3BB81BB89DB439AB27B685A
:100CB8001A8000BF1437BD465DF8047B70470000FA
:100CC80080B400AF134A134B1B6843F0040313604E
:100CD800104B6FF07F425A600E4B00229A600D4A0B
:100CE8000C4B1B6843F0010313600B4B1B680B4A4A
:100CF800A2FB03239B0C0A4A1360074B1B68094A93
:100D0800A2FB03239B09084A136000BFBD465DF898
:100D1800047B704710E000E01000002083DE1B43D6
:100D280040000020D34D62104400002080B584B0FC
:100D380000AF78600023FB6006E04FF47A7000F0A3
:100D480057F8FB680133FB60FA687B689A42F4D372
:100D580000BF1037BD4680BD80B582B000AF786057
:100D68007868FFF7E3FF00BF0837BD4680BD000085
:100D780080B582B002AFFFF77BFB0120FFF7A6FB2F
:100D880000BF2120FFF76CFD0346002BF9D0174B5D
:100D980040F202621A600020FFF704FC4FF4805012
:100DA800FFF71CFC0020FFF735FC07230093042302
:100DB8004FF4A87210210020FFF798FB0120FFF7DD
:100DC800B5FB00BF3920FFF74BFD0346002BF9D0D8
:100DD8000220FFF7BBFB00BFFFF7D4FB0346082B3D
:100DE800FAD100F0D1FC00BFBD4680BD003C0240F6
:100DF80080B489B000AF78600023BB61194B5B6891
:100E08007B61194B1A687B6802FB03F33B61154B46
:100E18009B68FB61134B9B68FB60FA68FB699A420D
:100E2800F8D0FA68FB699A4206D2FA69FB68D31AC5
:100E3800BA691344BB6107E07A69FB68D21AFB6997
:100E48001344BA691344BB61FB68FB61BA693B6927
:100E58009A4200D2DEE700BF00BF2437BD465DF8E6
:100E6800047B704710E000E04000002080B500AF30
:100E78004FF480710C48FFF7A2FA0C490C4800F0B7
:100E88000DF94FF47A70FFF767FF4FF48071064849
:100E9800FFF786FA0749064800F000F94FF47A7020
:100EA800FFF75AFF00BF80BD00000240101B00087A
:100EB80000440040281B000880B582B000AF2523FD
:100EC8003B7100237B710023BB710123FB713B1D28
:100ED8001846FFF775F926233B7100237B71012320
:100EE800BB710123FB713B1D1846FFF769F900BF71
:100EF8000837BD4680BD000080B582B000AF012133
:100F08000120FFF74DFC01210220FFF749FC0C23CB
:100F18003B6002233B7102237B710023BB710123D9
:100F2800FB713B4619462148FFF7ACF94FF4C06303
:100F38003B6002233B710123FB713B4619461B486A
:100F4800FFF7A0F9072202211848FFF747FA0722FE
:100F580003211648FFF742FA072209211348FFF731
:100F68003DFA07220A211148FFF738FA4FF40073B7
:100F78003B6001233B710023BB710023FB713B469F
:100F880019460B48FFF77EF94FF480733B60012345
:100F98003B710023BB710023FB713B461946034894
:100FA800FFF770F900BF0837BD4680BD000002405A
:100FB8000004024080B500AF4FF400710248FFF70B
:100FC800EFF900BF80BD00BF0004024080B500AF4C
:100FD8004FF400710248FFF7F2F900BF80BD00BF6F
:100FE8000004024080B584B000AF01214FF4003006
:100FF800FFF7F6FB3B461846FFF726FD4FF4E133B3
:101008003B600023BB800023FB8000233B8100233F
:10101800BB810C237B813B4619460848FFF75AFCE5
:10102800012240F225510548FFF76DFD01210348D3
:10103800FFF727FD00BF1037BD4680BD00440040C4
:1010480080B584B000AF01211020FFF7E9FB3B46D3
:101058001846FFF7F9FC4FF4E1333B600023BB80EF
:101068000023FB8000233B810023BB810C237B8171
:101078003B4619460848FFF72DFC012240F225514E
:101088000548FFF740FD01210348FFF7FAFC00BFC0
:101098001037BD4680BD00BF0010014080B584B048
:1010A80000AF786039600023FB6013E0FB683A68A2
:1010B80013441B789BB219467868FFF702FD00BFFE
:1010C80080217868FFF767FD0346002BF8D0FB689E
:1010D8000133FB60FB683A6813441B78002BE5D1A9
:1010E80000BF1037BD4680BD80B582B000AF7860C4
:1010F8000B46FB7000BF80217868FFF74CFD034664
:10110800002BF8D0FB789BB219467868FFF7D9FC1A
:1011180000BF0837BD4680BD80B400AF034B1B68D5
:101128001846BD465DF8047B704700BF48000020A4
:1011380080B400AF0B4B0322DA720A4B00225A70BC
:10114800084B00229A72074B00221A70054B0022A6
:101158001A81044B00225A6000BFBD465DF8047B2B
:10116800704700BFB002002080B584B000AF78603F
:101178000B467B80FFF7D0FF0346FB810BE07968C5
:101188000B4800F099FC0346002B01D001230BE02B
:101198000A20FFF7CBFDFFF7BFFF0246FB89D21AF3
:1011A8007B889A42EBD3002318461037BD4680BD92
:1011B8000010014080B582B000AFB04B1B780D2BFA
:1011C80000F2538101A252F823F000BF0D1200086B
:1011D80033120008731400085D120008EB120008AF
:1011E8004D130008B713000873140008731400089F
:1011F800731400081B140008731400087314000803
:10120800291400089E499F48FFF748FFFFF7D2FEC0
:101218009D4B00221A709D4B00221A70974B00229A
:101228009A72964B01221A7023E199499548FFF763
:1012380035FFFFF71BFE97499248FFF72FFF43F64C
:101248009820FFF773FD904B00221A708B4B0322F6
:101258001A700EE18C4B1B78002B09D18E498948F6
:10126800FFF71CFF8D4800F093F9874B01221A7095
:101278008B498C4800F020FC0346002B10D08A498B
:101288008048FFF70BFF804B00221A707F4B00222B
:101298001A707A4B00229A72784B04221A70E8E08E
:1012A800764B9B7A0133DAB2744B9A72734B9B7A02
:1012B800022B0AD97D497348FFF7F0FE724B0022D2
:1012C8001A706E4B0D221A70D3E079496D48FFF7FA
:1012D800E5FE6D4B00221A704FF4FA60FFF726FD09
:1012E800C7E06A4B1B78002B09D172496548FFF7A4
:1012F800D5FE714800F04CF9644B01221A70684918
:10130800684800F0D9FB0346002B10D06B495D48B4
:10131800FFF7C4FE5C4B00221A705C4B00221A7067
:10132800564B00229A72554B05221A70A1E0644967
:101338005448FFF7B3FE554B00221A704F4B0D224D
:101348001A7096E05F4B1B78002B09D15E494D4817
:10135800FFF7A4FE5D4800F01BF95A4B01221A70F2
:101368004FF4FA614E48FFF7FFFE0346002B13D0F7
:1013780057494448FFF792FE434B00221A70434BEB
:1013880000221A703D4B00229A724E4B00221A70AE
:101398003A4B06221A706CE04A4B00221A704D49EB
:1013A8003848FFF77BFE354B0D221A7061E04A4B37
:1013B8001B78002B09D149493248FFF76FFE48488E
:1013C80000F0E6F8444B01221A704FF4FA613448F1
:1013D800FFF7CAFE0346002B13D02B4B00221A70CE
:1013E8002A4B00221A70254B00229A723A4B00228F
:1013F8001A703C492348FFF751FE204B07221A7008
:1014080037E039491F48FFF749FE1C4B0D221A7077
:101418002FE036491B48FFF741FEFFF7D7FD28E0CC
:1014280033491848FFF73AFE00237B600CE0FFF7CA
:10143800C1FD6420FFF77AFCFFF7C8FD6420FFF7C1
:1014480075FC7B6801337B607B68042BEFDD0E4BFA
:1014580000221A700D4B00221A7041F28830FFF7F3
:1014680065FC064B00221A7003E0044B00221A7038
:1014780000BF00BF0837BD4680BD00BFB0020020D6
:10148800641B0008004400404C0000204D00002070
:10149800781B0008941B0008A41B0008BC1B00084C
:1014A800C01B000850000020C41B0008D81B0008FF
:1014B800F41B00080C1C0008281C0008341C000839
:1014C800481C00084E000020601C0008781C00081A
:1014D800881C0008981C00084F000020AC1C00085D
:1014E800C81C0008D41C0008E41C0008F81C0008EC
:1014F800141D000880B500AFFFF73AFCFFF7E0FBCA
:10150800FFF7FAFCFFF7D8FCFFF76CFDFFF798FD33
:101518001B491C48FFF7C2FDFFF70AFE04E0FFF76E
:1015280049FE6420FFF702FC174B1B780A2B03D0F7
:10153800154B1B780D2BF2D1134B1B780A2B18D1A6
:1015480012491048FFF7AAFD4FF4FA60FFF7EEFBC7
:101558000D4B0B221A7004E0FFF72CFE6420FFF7F6
:10156800E5FB094B1B780B2BF6D0074B1B780C2B94
:10157800F2D0FFF71FFE6420FFF7D8FBF9E700BFA2
:10158800241D000800440040B0020020381D000857
:1015980080B584B000AF78604FF4FA60FFF7C6FBFF
:1015A800294B00221A804FF496720021274800F038
:1015B8007BFA79682648FFF771FD26492448FFF72A
:1015C8006DFD4FF4FA60FFF7B1FB23492348FFF79D
:1015D80065FD79682148FFF761FD1E491F48FFF73F
:1015E8005DFD4FF4FA60FFF7A1FB174B1B889BB218
:1015F800002B20D01A491948FFF750FD1949174800
:10160800FFF74CFD0023FB810AE0FB890F4AD35CFE
:10161800DBB219461148FFF767FDFB890133FB81EF
:10162800094B1B889BB2FA899A42EED309490B48A9
:10163800FFF734FD03E00C490848FFF72FFD00BF12
:101648001037BD4680BD00BF7C010020500000203F
:1016580000100140501D0008541D000800440040BF
:101668005C1D00086C1D0008741D0008DFF834D0EC
:10167800002103E00C4B5B58435004310B480C4BE2
:1016880042189A42F6D30B4A02E0002342F8043B80
:10169800094B9A42F9D300F041F800F0E1F9FFF75D
:1016A80029FF704700000120841E00080000002068
:1016B8002400002024000020BC020020FEE780B4A3
:1016C80000AF00BFBD465DF8047B704780B400AF33
:1016D800FEE780B400AFFEE780B400AFFEE780B459
:1016E80000AFFEE780B400AF00BFBD465DF8047BE5
:1016F800704780B400AF00BFBD465DF8047B7047FB
:1017080080B400AF00BFBD465DF8047B704780B46D
:1017180000AF00BFBD465DF8047B704780B500AFE1
:10172800164A164BD3F8883043F47003C2F8883051
:10173800134A134B1B6843F001031360104B00223C
:101748009A600F4A0E4B1B6823F0847323F480338E
:1017580013600B4B0B4A5A60094A094B1B6823F468
:1017680080231360064B0022DA6000F089F8034BEF
:101778004FF000629A6000BF80BD00BF00ED00E03E
:10178800003802401030002480B487B000AF002336
:101798003B6100237B610223FB600023BB600223C3
:1017A8007B60324B9B6803F00C033B613B69042B65
:1017B80007D0082B09D0002B3DD12D4B2D4A1A609C
:1017C8003DE02B4B2C4A1A6039E0284B5B689B0D97
:1017D80003F00103BB60254B5B6803F03F037B60AC
:1017E800BB68002B0CD0244A7B68B2FBF3F31F4A7A
:1017F80052689209C2F3080202FB03F37B610BE013
:101808001C4A7B68B2FBF3F3184A52689209C2F388
:10181800080202FB03F37B61144B5B681B0C03F0AB
:10182800030301335B00FB607A69FB68B2FBF3F3E7
:101838000F4A136003E00E4B0E4A1A6000BF0B4BB1
:101848009B681B0903F00F030C4AD35CDBB23B61B6
:10185800074B1A683B6922FA03F3054A136000BF75
:101868001C37BD465DF8047B704700BF0038024056
:10187800100000200024F40040787D0114000020AE
:1018880080B483B000AF00237B6000233B60364AFE
:10189800354B1B6843F480331360334B1B6803F4E8
:1018A80000333B607B6801337B603B68002B03D1CE
:1018B8007B68B3F5A06FF0D12B4B1B6803F40033A2
:1018C800002B02D001233B6001E000233B603B6812
:1018D800012B42D1244A244B1B6C43F080531364E0
:1018E800224A224B1B6843F4404313601E4A1E4B96
:1018F8009B6893601C4A1C4B9B6843F400439360AD
:10190800194A194B9B6843F4A0539360164B184A25
:101918005A60154A144B1B6843F08073136000BF6C
:10192800114B1B6803F00073002BF9D0114B40F2E8
:1019380005721A600C4A0C4B9B6823F003039360F2
:10194800094A094B9B6843F00203936000BF064BAA
:101958009B6803F00C03082BF9D100BF0C37BD4678
:101968005DF8047B704700BF0038024000700040FB
:1019780019544007003C024080B582B000AF40F2E5
:1019880025511648FFF723F90346002B22D01348A8
:10199800FFF7A9F80346FB71FB7919461048FFF7D2
:1019A800A3FB104B1B889BB25A1C91B20D4A1180A5
:1019B80019460D4AFB7953540A4B1B889BB2B3F561
:1019C800967F02D3074B00221A8040F22551034824
:1019D800FFF758F900BF0837BD4680BD0010014029
:1019E800004400407C0100205000002080B582B0F7
:1019F80000AF40F225511648FFF7E9F80346002BDF
:101A080022D01348FFF76FF80346FB71FB7919469C
:101A18001048FFF769FB104B1B889BB25A1C91B208
:101A28000D4A118019460D4AFB7953540A4B1B88FD
:101A38009BB2B3F5967F02D3074B00221A8040F27F
:101A480025510348FFF71EF900BF0837BD4680BD82
:101A58000044004000100140AC020020800100203A
:101A680070B50D4E0D4CA41BA4100025A54209D13C
:101A78000B4E0C4C00F03CF8A41BA4100025A5420A
:101A880005D170BD56F8253098470135EEE756F870
:101A9800253098470135F2E77C1E00087C1E0008B7
:101AA8007C1E0008801E000802440346934200D1B1
:101AB800704703F8011BF9E7F0B5037833B1034623
:101AC80018465E1C1B7833B91846F0BD0B78002BFE
:101AD80018BF0020F0BD4D1E441E15F8012F002A26
:101AE800F3D014F8017F97423346F6D0E8E70000B8
:101AF800F8B500BFF8BC08BC9E467047F8B500BFF3
:081B0800F8BC08BC9E467047C2
:101B10004D6F64756C2064616E67206B686F69201F
:101B2000646F6E670D0A00004D6F64756C207369F9
:101B30006D2064616E67206F6E0D0A004D6F6475D5
:101B40006C20636875616E206269207461740D0A8F
:101B5000000000004D6F64756C2064612074617436
:101B60000D0A00005B49444C455D204261742064CD
:101B700061752E2E2E0D0A005B504F5745525F4F58
:101B80004E5D20426174206D6F64756C652E2E2E43
:101B90000D0A0000446F69203135732E2E2E0D0A78
:101BA000000000005B434845434B5F41545D2047C4
:101BB00075692041542E2E2E0D0A0000415400005C
:101BC0004F4B00005B434845434B5F41545D204F02
:101BD0004B210D0A000000005B434845434B5F4129
:101BE000545D20517561206E68696575206C616E69
:101BF000210D0A005B434845434B5F41545D20542F
:101C00006875206C61692E2E2E0D0A005B534554B9
:101C10005F46554E435D2041542B4346554E3D3162
:101C20002E2E2E0D0A00000041542B4346554E3DEA
:101C3000310000005B5345545F46554E435D204FD5
:101C40004B210D0A000000005B5345545F46554E82
:101C5000435D204641494C4544210D0A00000000E7
:101C60005B434841525345545D2041542B435343F9
:101C7000532E2E2E0D0A000041542B435343533D47
:101C800022495241220000005B43484152534554CF
:101C90005D204F4B0D0A00005B43484152534554B1
:101CA0005D204641494C45440D0A00005B534D53AD
:101CB0005F4D4F44455D2041542B434D47463D31D8
:101CC0002E2E2E0D0A00000041542B434D47463D59
:101CD000310000005B534D535F4D4F44455D204F35
:101CE0004B0D0A005B534D535F4D4F44455D2046FD
:101CF00041494C45440D0A000D0A3D3D3D204D4FE4
:101D000044554C452053414E2053414E47203D3DC4
:101D10003D0D0A005B4552524F525D204C6F6921C8
:101D20000D0A00000D0A3D3D3D2053544152542000
:101D30003D3D3D0D0A000000436875616E206269FB
:101D40002067756920534D532E2E2E0D0A0000007A
:101D50000D0A00004775693A200000006461207692
:101D6000616F206461793A20000000004E68616E66
:101D70003A2000004B686F6E67206E68616E2064C9
:101D8000756F63207068616E20686F69210D0A00AD
:101D90002D2D2D20424154204441552047554920A6
:101DA000534D53202D2D2D0D0A00000041542B437F
:101DB0005245473F0000000041542B434D47463DEC
:101DC0003100000041542B434D47533D22257322DF
:101DD00000000000477569206C656E683A200000BD
:101DE0004C6F693A204B686F6E67206E68616E2099
:101DF00064756F632070726F6D707420273E270DBD
:101E00000A0000004461206E68616E2070726F6D80
:101E1000707420273E270D0A000000001A00000001
:101E200044616E67206775692074696E206E686111
:101E30006E2E2E2E0D0A00004B6574207175613ACE
:101E4000200000004B686F6E67206E68616E206432
:101E5000756F63206B657420717561210D0A000038
:101E60002D2D2D204B45542054485543204755498E
:0C1E700020534D53202D2D2D0D0A000095
:041E7C00AD010008AC
:041E800089010008CC
:101E8400000000000102030401020304060708091C
:101E9400007A030A000000000000000001020304AD
:041EA400060708091C
:040000050800167564
:00000001FF
