:020000040800F2
:10000000000001203D1100088F1100089D1100081B
:10001000A3110008A9110008AF110008000000009A
:10002000000000000000000000000000B511000802
:10003000C311000800000000D1110008DF11000802
:100040008D1100088D1100088D1100088D11000818
:100050008D1100088D1100088D1100088D11000808
:100060008D1100088D1100088D1100088D110008F8
:100070008D1100088D1100088D1100088D110008E8
:100080008D1100088D1100088D1100088D110008D8
:100090008D1100088D1100088D1100088D110008C8
:1000A0008D1100088D1100088D1100088D110008B8
:1000B0008D1100088D1100088D1100088D110008A8
:1000C0008D1100088D1100088D1100088D11000898
:1000D0008D11000849140008A11400088D110008B2
:1000E0008D1100088D1100088D1100088D11000878
:1000F0008D1100088D1100088D1100088D11000868
:100100008D1100088D1100088D1100088D11000857
:100110008D1100088D1100088D1100088D11000847
:100120008D1100088D1100088D1100088D11000837
:100130008D1100088D1100088D1100088D11000827
:100140008D1100088D1100088D1100088D11000817
:100150008D1100088D1100088D1100088D11000807
:100160008D1100088D1100088D1100088D110008F7
:100170008D1100088D1100088D1100088D110008E7
:080180008D1100088D1100082B
:1001880010B5054C237833B9044B13B10448AFF3C9
:1001980000800123237010BD24000020000000000F
:1001A8007015000808B5034B1BB103490348AFF3AA
:1001B800008008BD0000000028000020701500081D
:1001C80080B485B000AF78600023FB730023BB7355
:1001D8000F237B737B68DB78002B39D0274BDB68D8
:1001E800DB431B0ADBB203F00703FB73FB7BC3F1A2
:1001F8000403BB737A7BFB7B42FA03F37B737B6854
:100208005B781A46BB7B02FA03F3FB737B689A7828
:100218007B7B1340DAB2FB7B1343FB73FB7B1B0135
:10022800FB73174A7B681B781344FA7B83F8002317
:10023800134A7B681B785B09DBB218467B681B781E
:1002480003F01F03012101FA03F342F820300FE005
:100258000B497B681B785B09DBB218467B681B7807
:1002680003F01F0301229A4000F1200341F82320E4
:1002780000BF1437BD465DF8047B704700ED00E011
:1002880000E100E080B487B000AF786039600023F7
:100298007B6100233B610023FB6000237B6176E0E8
:1002A80001227B6902FA03F33B613B681A683B69E8
:1002B8001340FB60FA683B699A4265D17B681A680B
:1002C8007B695B00032101FA03F3DB431A407B6877
:1002D8001A607B681A683B681B7919467B695B0062
:1002E80001FA03F31A437B681A603B681B79012BF8
:1002F80003D03B681B79022B2ED17B689A687B69F7
:100308005B00032101FA03F3DB431A407B689A6020
:100318007B689A683B685B7919467B695B0001FAE0
:1003280003F31A437B689A607B685A687B699BB2BF
:10033800194601238B40DB431A407B685A607B686F
:100348005B683A68927911467A6992B201FA02F2C8
:1003580092B21A437B685A607B68DA687B699BB201
:100368005B00032101FA03F3DB431A407B68DA6080
:100378007B68DA683B68DB7919467B695B0001FAC0
:1003880003F31A437B68DA607B6901337B617B691D
:100398000F2B85D900BF1C37BD465DF8047B70471D
:1003A80080B485B000AF78600B467B8013467B70C5
:1003B8000023FB600023BB607A787B8803F0070387
:1003C8009B0002FA03F3FB607B88DB089BB21846AC
:1003D8007B88DB089BB21A467B68083253F82220D8
:1003E8007B8803F007039B000F2101FA03F3DB432B
:1003F80002EA03017B6800F1080243F822107B88B7
:10040800DB089BB21A467B68083253F82220FB6847
:100418001343BB607B88DB089BB21A467B680832B3
:10042800B96843F8221000BF1437BD465DF8047B55
:100438007047000080B400AF124A124B1B6843F0AB
:10044800010313600F4B00229A600E4A0D4B1B6884
:1004580023F0A16323F4803313600A4B0A4A5A60DD
:10046800084B0A4AC3F88420064A064B1B6823F443
:1004780080231360034B0022DA6000BFBD465DF89D
:10048800047B704700380240103000240030002000
:1004980080B483B000AF0346FB71044AFB79136054
:1004A80000BF0C37BD465DF8047B7047000047422B
:1004B80080B485B000AFF860B9607A603B600B49E2
:1004C8007B689A01BB681A433B685B08013B1B04C5
:1004D8001A43FB681A43BB691B0613434B6000BFF2
:1004E8001437BD465DF8047B704700BF00380240F2
:1004F80080B483B000AF0346FB71044AFB791360F4
:1005080000BF0C37BD465DF8047B7047600047426A
:1005180080B485B000AF78600023FB60094B9B680E
:10052800FB60FB6823F00303FB60FA687B681343F6
:10053800FB60044AFB68936000BF1437BD465DF852
:10054800047B70470038024080B400AF054B9B68BD
:10055800DBB203F00C03DBB21846BD465DF8047B42
:10056800704700BF0038024080B485B000AF7860A3
:100578000023FB60094B9B68FB60FB6823F0F003DA
:10058800FB60FA687B681343FB60044AFB6893606E
:1005980000BF1437BD465DF8047B70470038024041
:1005A80080B485B000AF78600023FB60094B9B687E
:1005B800FB60FB6823F4E053FB60FA687B68134335
:1005C800FB60044AFB68936000BF1437BD465DF8C2
:1005D800047B70470038024080B485B000AF786073
:1005E8000023FB600A4B9B68FB60FB6823F46043B5
:1005F800FB607B68DB00FA681343FB60044AFB6816
:10060800936000BF1437BD465DF8047B704700BF98
:100618000038024080B489B000AF78600023BB6125
:1006280000237B610023FB6102233B610023FB6005
:100638000223BB60474B9B6803F00C03BB61BB699B
:10064800042B07D0082B09D0002B3DD17B68424AE8
:100658001A603DE07B68414A1A6039E03D4B5B68AF
:100668009B0D03F00103FB603A4B5B6803F03F030B
:10067800BB60FB68002B0CD0384ABB68B2FBF3F3B5
:10068800344A52689209C2F3080202FB03F3FB6181
:100698000BE0314ABB68B2FBF3F32E4A5268920969
:1006A800C2F3080202FB03F3FB612A4B5B681B0CD5
:1006B80003F0030301335B003B61FA693B69B2FB5A
:1006C800F3F27B681A6003E07B68234A1A6000BF74
:1006D800204B9B6803F0F003BB61BB691B09BB613E
:1006E8001F4ABB6913441B78DBB27B617B681A68BD
:1006F8007B69DA407B685A60164B9B6803F4E053C9
:10070800BB61BB699B0ABB61154ABB6913441B7873
:10071800DBB27B617B685A687B69DA407B689A60E8
:100728000C4B9B6803F46043BB61BB695B0BBB610B
:100738000B4ABB6913441B78DBB27B617B685A6840
:100748007B69DA407B68DA6000BF2437BD465DF814
:10075800047B7047003802400024F40040787D0193
:100768000000002080B483B000AF78600B46FB70B7
:10077800FB78002B06D00A49094B1A6B7B68134398
:100788000B6306E00649064B1A6B7B68DB43134094
:100798000B6300BF0C37BD465DF8047B704700BF94
:1007A8000038024080B483B000AF78600B46FB701D
:1007B800FB78002B06D00A49094B1A6C7B68134357
:1007C8000B6406E00649064B1A6C7B68DB43134052
:1007D8000B6400BF0C37BD465DF8047B704700BF53
:1007E8000038024080B483B000AF78600B46FB70DD
:1007F800FB78002B06D00A49094B5A6C7B681343D7
:100808004B6406E00649064B5A6C7B68DB43134091
:100818004B6400BF0C37BD465DF8047B704700BFD2
:100828000038024080B487B000AF0346FB71002354
:10083800FB6000237B610023FB74FB795B09DBB25F
:10084800FB60FB68012B03D1124B1B687B6109E03D
:10085800FB68022B03D10F4B1B6F7B6102E00D4B32
:100868005B6F7B61FB7903F01F03FB607A69FB68B0
:1008780022FA03F303F00103002B02D00123FB74D7
:1008880001E00023FB74FB7C18461C37BD465DF86D
:10089800047B70470038024080B58AB000AF7860AA
:1008A800396000237B6200233B620023FB61002345
:1008B800BB617B681B8A9BB27B627B6A23F44053D3
:1008C8007B623B68DB881A467B6A13437B627B6AE0
:1008D8009AB27B681A827B689B899BB27B627B6A2F
:1008E80023F4B05323F00C037B623B689A883B687F
:1008F8001B8913439AB23B685B8913439BB21A4620
:100908007B6A13437B627B6A9AB27B689A817B68B5
:100918009B8A9BB27B627B6A23F440737B623B6851
:100928009B891A467B6A13437B627B6A9AB27B680F
:100938009A8207F108031846FFF76CFE7B68304A75
:10094800934203D07B682F4A934202D17B693B6272
:1009580001E03B693B627B689B899BB21BB2002B21
:100968000CDA3A6A13469B0013449A001A443B680F
:100978001B685B00B2FBF3F3FB610BE03A6A1346BA
:100988009B0013449A001A443B681B689B00B2FB07
:10099800F3F3FB61FB691C4AA2FB03235B091B0100
:1009A8007B627B6A1B09642202FB03F3FA69D31A90
:1009B800BB617B689B899BB21BB2002B0CDABB69BD
:1009C800DB003233104AA2FB03235B0903F0070361
:1009D8007A6A13437B620BE0BB691B0132330A4A14
:1009E800A2FB03235B0903F00F037A6A13437B62BC
:1009F8007B6A9AB27B681A8100BF2837BD4680BDE2
:100A080000100140001401401F85EB5180B483B0F1
:100A180000AF78607B684FF416521A607B6800223A
:100A28009A807B680022DA807B6800221A817B68C2
:100A38000C225A817B6800229A8100BF0C37BD4680
:100A48005DF8047B704780B483B000AF78600B46D4
:100A5800FB70FB78002B08D07B689B899BB243F422
:100A680000539AB27B689A8107E07B689B899BB2A6
:100A780023F400539AB27B689A8100BF0C37BD46B5
:100A88005DF8047B704780B483B000AF78600B4694
:100A98007B807B88C3F308039AB27B689A8000BF87
:100AA8000C37BD465DF8047B704780B483B000AF57
:100AB80078607B689B889BB2C3F308039BB2184697
:100AC8000C37BD465DF8047B704780B487B000AF33
:100AD80078600B467B8013467B7000233B610023C4
:100AE800FB600023BB6000237B617B687B617B88A4
:100AF800DBB25B09DBB23B617B8803F01F03FB6061
:100B08000122FB6802FA03F3BB603B69012B03D1A6
:100B18007B690C337B6109E03B69022B03D17B695C
:100B280010337B6102E07B6914337B617B78002B97
:100B380006D07B697A691168BA680A431A6006E0C8
:100B48007B697A691168BA68D2430A401A6000BFA3
:100B58001C37BD465DF8047B704780B485B000AF94
:100B680078600B467B800023FB737B681B889AB2F6
:100B78007B8813409BB2002B02D00123FB7301E05A
:100B88000023FB73FB7B18461437BD465DF8047BD6
:100B9800704780B487B000AF78600B467B80002335
:100BA800FB6000237B610023BB600023FB747B8810
:100BB800DBB25B09DBB2BB607B8803F01F037B61A0
:100BC80001227B6902FA03F37B61BB68012B07D121
:100BD8007B689B899BB21A467B6913407B6111E055
:100BE800BB68022B07D17B681B8A9BB21A467B69BC
:100BF80013407B6106E07B689B8A9BB21A467B693F
:100C080013407B617B881B0A9BB2FB600122FB6857
:100C180002FA03F3FB607B681B889BB21A46FB68E9
:100C28001340FB607B69002B05D0FB68002B02D0CA
:100C38000123FB7401E00023FB74FB7C18461C377E
:100C4800BD465DF8047B704780B485B000AF78601E
:100C58000B467B800023FB810023BB817B881B0A1A
:100C6800FB81FB89012202FA03F3BB81BB89DB43C9
:100C78009AB27B681A8000BF1437BD465DF8047BC2
:100C88007047000080B400AF134A134B1B6843F051
:100C980004031360104B6FF07F425A600E4B002222
:100CA8009A600D4A0C4B1B6843F0010313600B4B11
:100CB8001B680B4AA2FB03239B0C0A4A1360074BD1
:100CC8001B68094AA2FB03239B09084A136000BF5B
:100CD800BD465DF8047B704710E000E0100000207E
:100CE80083DE1B4340000020D34D621044000020E7
:100CF80080B582B002AFFFF79DFB0120FFF7C8FB6C
:100D080000BF2120FFF78EFD0346002BF9D0174BBB
:100D180040F202621A600020FFF726FC4FF4805070
:100D2800FFF73EFC0020FFF757FC0723009304233E
:100D38004FF4A87210210020FFF7BAFB0120FFF73B
:100D4800D7FB00BF3920FFF76DFD0346002BF9D014
:100D58000220FFF7DDFB00BFFFF7F6FB0346082B79
:100D6800FAD100F075FA00BFBD4680BD003C0240D4
:100D780080B582B000AF25233B7100237B7100232F
:100D8800BB710123FB713B1D1846FFF719FA262397
:100D98003B7100237B710123BB710123FB713B1D58
:100DA8001846FFF70DFA00BF0837BD4680BD0000A2
:100DB80080B582B000AF01210120FFF7D3FC0121EB
:100DC8000220FFF7CFFC0C233B6002233B71022378
:100DD8007B710023BB710123FB713B4619462148F7
:100DE800FFF750FA4FF4C0633B6002233B710123C5
:100DF800FB713B4619461B48FFF744FA07220221BC
:100E08001848FFF7CDFA072203211648FFF7C8FA5A
:100E1800072209211348FFF7C3FA07220A211148BC
:100E2800FFF7BEFA4FF400733B6001233B710023C8
:100E3800BB710023FB713B4619460B48FFF722FAAA
:100E48004FF480733B6001233B710023BB71002387
:100E5800FB713B4619460348FFF714FA00BF0837F1
:100E6800BD4680BD000002400004024080B584B049
:100E780000AF01214FF40030FFF794FC3B461846C1
:100E8800FFF7C4FD4FF4E1333B600023BB80002330
:100E9800FB8000233B810023BB810C237B813B46E5
:100EA80019460848FFF7F8FC012240F22551054889
:100EB800FFF70BFE01210348FFF7C5FD00BF103700
:100EC800BD4680BD0044004080B584B000AF01211C
:100ED8001020FFF787FC3B461846FFF797FD4FF4B5
:100EE800E1333B600023BB800023FB8000233B8170
:100EF8000023BB810C237B813B4619460848FFF73A
:100F0800CBFC012240F225510548FFF7DEFD012107
:100F18000348FFF798FD00BF1037BD4680BD00BFEE
:100F28000010014080B584B000AF786039600023BC
:100F3800FB600AE0FB683A6813441A4601217868A6
:100F480000F096F8FB680133FB60FB683A681344CD
:100F58001B78002BEED100BF1037BD4680BD80B591
:100F680082B000AF78600B46FB70FB789BB21946E5
:100F78007868FFF788FD00BF80217868FFF7EDFDEE
:100F88000346002BF8D000BF0837BD4680BD80B5AA
:100F980084B000AF7860396004E0FB7B194678685C
:100FA800FFF7DDFF07F10F031946386800F098F8DE
:100FB8000346002BF1D100BF1037BD4680BD0000AD
:100FC80080B500AFFFF794FEFFF75CFE01234FF4F6
:100FD80080721049104800F02BF801234FF48072FA
:100FE8000E490F4800F024F8FFF7E2FEFFF7C0FEB5
:100FF800FFF73CFFFFF768FF0A490748FFF792FF32
:1010080009490548FFF78EFF03490848FFF7BFFF66
:10101800FEE700BF74020020C00400204800002042
:10102800A40400208815000890150008004400401A
:1010380080B485B000AFF860B96011461A460B4617
:10104800FB801346BB80FB68BA681A60FB68FA88A5
:101058001A81FB68BA885A81FB6800229A80FB686B
:101068000022DA8000BF1437BD465DF8047B704764
:1010780080B487B000AFF860B9607A6000237B6104
:1010880021E0FB689B880133FA68128993FBF2F12F
:1010980002FB01F29B1A3B61FB68DB881A463B693D
:1010A8009A4215D0FB681B68FA68928813447968DD
:1010B8007A690A4412781A703B699AB2FB689A8076
:1010C8007B6901337B617A69BB689A42D9D300E0B6
:1010D80000BF7B6918461C37BD465DF8047B704726
:1010E80080B483B000AF786039607B689A887B6889
:1010F800DB889A4201D1002315E07B681B687A6877
:10110800D28813441A783B681A707B68DB880133ED
:101118007A68128993FBF2F102FB01F29B1A9AB2E8
:101128007B68DA80012318460C37BD465DF8047BDE
:1011380070470000DFF834D0002103E00C4B5B5807
:10114800435004310B480C4B42189A42F6D30B4AD1
:1011580002E0002342F8043B094B9A42F9D300F01D
:1011680041F800F0DDF9FFF72BFF70470000012080
:10117800A015000800000020240000202400002002
:10118800CC040020FEE780B400AF00BFBD465DF888
:10119800047B704780B400AFFEE780B400AFFEE781
:1011A80080B400AFFEE780B400AFFEE780B400AFC4
:1011B80000BFBD465DF8047B704780B400AF00BF38
:1011C800BD465DF8047B704780B400AF00BFBD46E4
:1011D8005DF8047B704780B400AF00BFBD465DF882
:1011E800047B704780B500AF164A164BD3F8883099
:1011F80043F47003C2F88830134A134B1B6843F05A
:1012080001031360104B00229A600F4A0E4B1B68B3
:1012180023F0847323F4803313600B4B0B4A5A601A
:10122800094A094B1B6823F480231360064B0022EC
:10123800DA6000F089F8034B4FF000629A6000BF53
:1012480080BD00BF00ED00E00038024010300024EF
:1012580080B487B000AF00233B6100237B61022389
:10126800FB600023BB6002237B60324B9B6803F06A
:101278000C033B613B69042B07D0082B09D0002BDA
:101288003DD12D4B2D4A1A603DE02B4B2C4A1A605C
:1012980039E0284B5B689B0D03F00103BB60254BCD
:1012A8005B6803F03F037B60BB68002B0CD0244ACB
:1012B8007B68B2FBF3F31F4A52689209C2F3080233
:1012C80002FB03F37B610BE01C4A7B68B2FBF3F380
:1012D800184A52689209C2F3080202FB03F37B61C1
:1012E800144B5B681B0C03F0030301335B00FB60CA
:1012F8007A69FB68B2FBF3F30F4A136003E00E4B05
:101308000E4A1A6000BF0B4B9B681B0903F00F03C2
:101318000C4AD35CDBB23B61074B1A683B6922FA83
:1013280003F3054A136000BF1C37BD465DF8047B14
:10133800704700BF00380240100000200024F4006D
:1013480040787D011400002080B483B000AF0023F2
:101358007B6000233B60364A354B1B6843F480337F
:101368001360334B1B6803F400333B607B68013325
:101378007B603B68002B03D17B68B3F5A06FF0D18D
:101388002B4B1B6803F40033002B02D001233B6076
:1013980001E000233B603B68012B42D1244A244BE7
:1013A8001B6C43F080531364224A224B1B6843F49E
:1013B800404313601E4A1E4B9B6893601C4A1C4B9B
:1013C8009B6843F400439360194A194B9B6843F4A4
:1013D800A0539360164B184A5A60154A144B1B6861
:1013E80043F08073136000BF114B1B6803F0007358
:1013F800002BF9D0114B40F205721A600C4A0C4BC5
:101408009B6823F003039360094A094B9B6843F0E8
:101418000203936000BF064B9B6803F00C03082B84
:10142800F9D100BF0C37BD465DF8047B704700BF9B
:10143800003802400070004019544007003C024048
:1014480080B582B000AF40F225511048FFF7A1FBEC
:101458000346002B15D00D48FFF727FB0346DBB2E8
:10146800FB71FB7919460A48FFF779FDFB1D1A46FF
:1014780001210848FFF7FCFD40F225510348FFF71A
:10148800E3FB00BF0837BD4680BD00BF0010014028
:1014980000440040A404002080B582B000AF40F2B0
:1014A80025511A48FFF775FB0346002B29D017482A
:1014B800FFF7FBFA0346DBB2FB71FB7919461448C8
:1014C800FFF74DFDFB1D1A4601211248FFF7D0FD1D
:1014D800114B1B889BB25A1C91B20F4A11801A46B5
:1014E800F9790E4B99540C4B1B889BB2B3F5967F38
:1014F80002D3094B00221A8040F225510348FFF716
:10150800A3FB00BF0837BD4680BD00BF00440040B4
:1015180000100140A4040020B0040020780300203B
:1015280070B50D4E0D4CA41BA4100025A54209D181
:101538000B4E0C4C00F018F8A41BA4100025A54273
:1015480005D170BD56F8253098470135EEE756F8B5
:10155800253098470135F2E79815000898150008D6
:10156800981500089C150008F8B500BFF8BC08BC21
:101578009E467047F8B500BFF8BC08BC9E46704749
:101588005445535400000000544553540D0A0000BC
:04159800AD01000899
:04159C0089010008B9
:1015A0000000000001020304010203040607080909
:1015B000007A030A0000000000000000010203049A
:0415C0000607080909
:040000050800113DA1
:00000001FF
