:020000040800F2
:1000000000000120F91500084B16000859160008D9
:100010005F160008651600086B1600080000000057
:100020000000000000000000000000007116000841
:100030007F160008000000008D1600089B160008BF
:100040004916000849160008491600084916000814
:100050004916000849160008491600084916000804
:1000600049160008491600084916000849160008F4
:1000700049160008491600084916000849160008E4
:1000800049160008491600084916000849160008D4
:1000900049160008491600084916000849160008C4
:1000A00049160008491600084916000849160008B4
:1000B00049160008491600084916000849160008A4
:1000C0004916000849160008491600084916000894
:1000D00049160008051900086D190008491600089E
:1000E0004916000849160008491600084916000874
:1000F0004916000849160008491600084916000864
:100100004916000849160008491600084916000853
:100110004916000849160008491600084916000843
:100120004916000849160008491600084916000833
:100130004916000849160008491600084916000823
:100140004916000849160008491600084916000813
:100150004916000849160008491600084916000803
:1001600049160008491600084916000849160008F3
:1001700049160008491600084916000849160008E3
:080180004916000849160008A9
:1001900010B5054C237833B9044B13B10448AFF3C1
:1001A00000800123237010BD8800002000000000A3
:1001B0008023000808B5034B1BB103490348AFF384
:1001C000008008BD000000008C0000208023000893
:1001D00001F0FF01102A2BDB10F0070F08D010F8F8
:1001E000013B013A8B422DD010F0070F42B3F6D1FC
:1001F000F0B441EA012141EA014122F007047FF015
:1002000000070023F0E80256083C85EA010586EA6B
:10021000010685FA47F5A3FA87F586FA47F6A5FAA7
:1002200087F68EB9EED1F0BC01F0FF0102F00702B3
:1002300032B110F8013B013A83EA010313B1F8D15E
:100240000020704701387047002D06BF354603383F
:10025000073815F0010F07D1013015F4807F02BF78
:10026000013015F4C03F0130F0BC0138704700BFC9
:1002700080B485B000AF78600023FB730023BB73AC
:100280000F237B737B68DB78002B39D0274BDB682F
:10029000DB431B0ADBB203F00703FB73FB7BC3F1F9
:1002A0000403BB737A7BFB7B42FA03F37B737B68AB
:1002B0005B781A46BB7B02FA03F3FB737B689A7880
:1002C0007B7B1340DAB2FB7B1343FB73FB7B1B018D
:1002D000FB73174A7B681B781344FA7B83F800236F
:1002E000134A7B681B785B09DBB218467B681B7876
:1002F00003F01F03012101FA03F342F820300FE05D
:100300000B497B681B785B09DBB218467B681B785E
:1003100003F01F0301229A4000F1200341F823203B
:1003200000BF1437BD465DF8047B704700ED00E068
:1003300000E100E080B487B000AF7860396000234E
:100340007B6100233B610023FB6000237B6176E03F
:1003500001227B6902FA03F33B613B681A683B693F
:100360001340FB60FA683B699A4265D17B681A6862
:100370007B695B00032101FA03F3DB431A407B68CE
:100380001A607B681A683B681B7919467B695B00B9
:1003900001FA03F31A437B681A603B681B79012B4F
:1003A00003D03B681B79022B2ED17B689A687B694E
:1003B0005B00032101FA03F3DB431A407B689A6078
:1003C0007B689A683B685B7919467B695B0001FA38
:1003D00003F31A437B689A607B685A687B699BB217
:1003E000194601238B40DB431A407B685A607B68C7
:1003F0005B683A68927911467A6992B201FA02F220
:1004000092B21A437B685A607B68DA687B699BB258
:100410005B00032101FA03F3DB431A407B68DA60D7
:100420007B68DA683B68DB7919467B695B0001FA17
:1004300003F31A437B68DA607B6901337B617B6974
:100440000F2B85D900BF1C37BD465DF8047B704774
:1004500080B483B000AF78600B467B807B687A887D
:100460001A8300BF0C37BD465DF8047B704780B42B
:1004700083B000AF78600B467B807B687A885A83B4
:1004800000BF0C37BD465DF8047B704780B485B073
:1004900000AF78600B467B8013467B700023FB60C7
:1004A0000023BB607A787B8803F007039B0002FA85
:1004B00003F3FB607B88DB089BB218467B88DB0874
:1004C0009BB21A467B68083253F822207B8803F0DF
:1004D00007039B000F2101FA03F3DB4302EA030148
:1004E0007B6800F1080243F822107B88DB089BB28E
:1004F0001A467B68083253F82220FB681343BB601E
:100500007B88DB089BB21A467B680832B96843F8DF
:10051000221000BF1437BD465DF8047B7047000011
:1005200080B400AF124A124B1B6843F00103136002
:100530000F4B00229A600E4A0D4B1B6823F0A163FB
:1005400023F4803313600A4B0A4A5A60084B0A4A64
:10055000C3F88420064A064B1B6823F480231360EB
:10056000034B0022DA6000BFBD465DF8047B704794
:1005700000380240103000240030002080B483B0E6
:1005800000AF0346FB71044AFB79136000BF0C37D0
:10059000BD465DF8047B70470000474280B485B0DB
:1005A00000AFF860B9607A603B600B497B689A01E4
:1005B000BB681A433B685B08013B1B041A43FB689A
:1005C0001A43BB691B0613434B6000BF1437BD467B
:1005D0005DF8047B704700BF0038024080B483B0F0
:1005E00000AF0346FB71044AFB79136000BF0C3770
:1005F000BD465DF8047B70476000474280B485B01B
:1006000000AF78600023FB60094B9B68FB60FB68D0
:1006100023F00303FB60FA687B681343FB60044A22
:10062000FB68936000BF1437BD465DF8047B7047DC
:100630000038024080B400AF054B9B68DBB203F08A
:100640000C03DBB21846BD465DF8047B704700BF63
:100650000038024080B485B000AF78600023FB60B2
:10066000094B9B68FB60FB6823F0F003FB60FA68B2
:100670007B681343FB60044AFB68936000BF143738
:10068000BD465DF8047B70470038024080B485B0F9
:1006900000AF78600023FB60094B9B68FB60FB6840
:1006A00023F4E053FB60FA687B681343FB60044A61
:1006B000FB68936000BF1437BD465DF8047B70474C
:1006C0000038024080B485B000AF78600023FB6042
:1006D0000A4B9B68FB60FB6823F46043FB607B680C
:1006E000DB00FA681343FB60044AFB68936000BFB9
:1006F0001437BD465DF8047B704700BF00380240E8
:1007000080B489B000AF78600023BB6100237B61B7
:100710000023FB6102233B610023FB600223BB60DB
:10072000474B9B6803F00C03BB61BB69042B07D0EC
:10073000082B09D0002B3DD17B68424A1A603DE06E
:100740007B68414A1A6039E03D4B5B689B0D03F0C2
:100750000103FB603A4B5B6803F03F03BB60FB683F
:10076000002B0CD0384ABB68B2FBF3F3344A526812
:100770009209C2F3080202FB03F3FB610BE0314A6A
:10078000BB68B2FBF3F32E4A52689209C2F3080227
:1007900002FB03F3FB612A4B5B681B0C03F00303B2
:1007A00001335B003B61FA693B69B2FBF3F27B68A2
:1007B0001A6003E07B68234A1A6000BF204B9B68E5
:1007C00003F0F003BB61BB691B09BB611F4ABB6936
:1007D00013441B78DBB27B617B681A687B69DA4063
:1007E0007B685A60164B9B6803F4E053BB61BB699E
:1007F0009B0ABB61154ABB6913441B78DBB27B6162
:100800007B685A687B69DA407B689A600C4B9B680E
:1008100003F46043BB61BB695B0BBB610B4ABB6903
:1008200013441B78DBB27B617B685A687B69DA40D2
:100830007B68DA6000BF2437BD465DF8047B7047F3
:10084000003802400024F40040787D0100000020C0
:1008500080B483B000AF78600B46FB70FB78002B50
:1008600006D00A49094B1A6B7B6813430B6306E0F9
:100870000649064B1A6B7B68DB4313400B6300BFD2
:100880000C37BD465DF8047B704700BF003802405E
:1008900080B483B000AF78600B46FB70FB78002B10
:1008A00006D00A49094B1A6C7B6813430B6406E0B7
:1008B0000649064B1A6C7B68DB4313400B6400BF90
:1008C0000C37BD465DF8047B704700BF003802401E
:1008D00080B483B000AF78600B46FB70FB78002BD0
:1008E00006D00A49094B5A6C7B6813434B6406E0F7
:1008F0000649064B5A6C7B68DB4313404B6400BFD0
:100900000C37BD465DF8047B704700BF00380240DD
:1009100080B487B000AF0346FB710023FB60002367
:100920007B610023FB74FB795B09DBB2FB60FB6836
:10093000012B03D1124B1B687B6109E0FB68022B82
:1009400003D10F4B1B6F7B6102E00D4B5B6F7B6133
:10095000FB7903F01F03FB607A69FB6822FA03F35B
:1009600003F00103002B02D00123FB7401E00023FC
:10097000FB74FB7C18461C37BD465DF8047B704752
:100980000038024080B58AB000AF7860396000233B
:100990007B6200233B620023FB610023BB617B6819
:1009A0001B8A9BB27B627B6A23F440537B623B6869
:1009B000DB881A467B6A13437B627B6A9AB27B6848
:1009C0001A827B689B899BB27B627B6A23F4B0535B
:1009D00023F00C037B623B689A883B681B891343B6
:1009E0009AB23B685B8913439BB21A467B6A1343F6
:1009F0007B627B6A9AB27B689A817B689B8A9BB296
:100A00007B627B6A23F440737B623B689B891A4656
:100A10007B6A13437B627B6A9AB27B689A8207F196
:100A200008031846FFF76CFE7B68304A934203D0F8
:100A30007B682F4A934202D17B693B6201E03B69AC
:100A40003B627B689B899BB21BB2002B0CDA3A6A33
:100A500013469B0013449A001A443B681B685B00D2
:100A6000B2FBF3F3FB610BE03A6A13469B001344BD
:100A70009A001A443B681B689B00B2FBF3F3FB61CE
:100A8000FB691C4AA2FB03235B091B017B627B6A97
:100A90001B09642202FB03F3FA69D31ABB617B686A
:100AA0009B899BB21BB2002B0CDABB69DB00323393
:100AB000104AA2FB03235B0903F007037A6A13437E
:100AC0007B620BE0BB691B0132330A4AA2FB0323A2
:100AD0005B0903F00F037A6A13437B627B6A9AB265
:100AE0007B681A8100BF2837BD4680BD00100140D9
:100AF000001401401F85EB5180B483B000AF7860D3
:100B00007B684FF416521A607B6800229A807B68DB
:100B10000022DA807B6800221A817B680C225A81CD
:100B20007B6800229A8100BF0C37BD465DF8047BCC
:100B3000704780B483B000AF78600B46FB70FB78E1
:100B4000002B08D07B689B899BB243F400539AB278
:100B50007B689A8107E07B689B899BB223F40053F2
:100B60009AB27B689A8100BF0C37BD465DF8047B62
:100B7000704780B483B000AF78600B467B807B8881
:100B8000C3F308039AB27B689A8000BF0C37BD4656
:100B90005DF8047B704780B483B000AF78607B68F9
:100BA0009B889BB2C3F308039BB218460C37BD4623
:100BB0005DF8047B704780B487B000AF78600B4667
:100BC0007B8013467B7000233B610023FB60002386
:100BD000BB6000237B617B687B617B88DBB25B0948
:100BE000DBB23B617B8803F01F03FB600122FB68E3
:100BF00002FA03F3BB603B69012B03D17B690C3321
:100C00007B6109E03B69022B03D17B6910337B6177
:100C100002E07B6914337B617B78002B06D07B6913
:100C20007A691168BA680A431A6006E07B697A69D2
:100C30001168BA68D2430A401A6000BF1C37BD462B
:100C40005DF8047B704780B485B000AF78600B46D8
:100C50007B800023FB737B681B889AB27B881340E0
:100C60009BB2002B02D00123FB7301E00023FB7336
:100C7000FB7B18461437BD465DF8047B704780B493
:100C800087B000AF78600B467B800023FB600023B9
:100C90007B610023BB600023FB747B88DBB25B09B4
:100CA000DBB2BB607B8803F01F037B6101227B69A1
:100CB00002FA03F37B61BB68012B07D17B689B8938
:100CC0009BB21A467B6913407B6111E0BB68022B23
:100CD00007D17B681B8A9BB21A467B6913407B61F4
:100CE00006E07B689B8A9BB21A467B6913407B6156
:100CF0007B881B0A9BB2FB600122FB6802FA03F3AC
:100D0000FB607B681B889BB21A46FB681340FB6044
:100D10007B69002B05D0FB68002B02D00123FB74FC
:100D200001E00023FB74FB7C18461C37BD465DF8D0
:100D3000047B704780B485B000AF78600B467B8041
:100D40000023FB810023BB817B881B0AFB81FB897D
:100D5000012202FA03F3BB81BB89DB439AB27B68B1
:100D60001A8000BF1437BD465DF8047B7047000051
:100D700080B400AF134A134B1B6843F004031360A5
:100D8000104B6FF07F425A600E4B00229A600D4A62
:100D90000C4B1B6843F0010313600B4B1B680B4AA1
:100DA000A2FB03239B0C0A4A1360074B1B68094AEA
:100DB000A2FB03239B09084A136000BFBD465DF8F0
:100DC000047B704710E000E01000002083DE1B432E
:100DD000A4000020D34D6210A800002080B584B08C
:100DE00000AF78600023FB6006E04FF47A7000F0FB
:100DF00057F8FB680133FB60FA687B689A42F4D3CA
:100E000000BF1037BD4680BD80B582B000AF7860AE
:100E10007868FFF7E3FF00BF0837BD4680BD0000DC
:100E200080B582B002AFFFF77BFB0120FFF7A6FB86
:100E300000BF2120FFF76CFD0346002BF9D0174BB4
:100E400040F202621A600020FFF704FC4FF4805069
:100E5000FFF71CFC0020FFF735FC07230093042359
:100E60004FF4A87210210020FFF798FB0120FFF734
:100E7000B5FB00BF3920FFF74BFD0346002BF9D02F
:100E80000220FFF7BBFB00BFFFF7D4FB0346082B94
:100E9000FAD100F03FFC00BFBD4680BD003C0240DF
:100EA00080B489B000AF78600023BB61194B5B68E8
:100EB0007B61194B1A687B6802FB03F33B61154B9E
:100EC0009B68FB61134B9B68FB60FA68FB699A4265
:100ED000F8D0FA68FB699A4206D2FA69FB68D31A1D
:100EE000BA691344BB6107E07A69FB68D21AFB69EF
:100EF0001344BA691344BB61FB68FB61BA693B697F
:100F00009A4200D2DEE700BF00BF2437BD465DF83D
:100F1000047B704710E000E0A400002080B500AF23
:100F20004FF480710C48FFF7A2FA0C490C4800F00E
:100F30006FFD4FF47A70FFF767FF4FF4807106483A
:100F4000FFF786FA0749064800F062FD4FF47A7011
:100F5000FFF75AFF00BF80BD000002409823000841
:100F600000440040B023000880B582B000AF2523C4
:100F70003B7100237B710023BB710123FB713B1D7F
:100F80001846FFF775F926233B7100237B71012377
:100F9000BB710123FB713B1D1846FFF769F9012264
:100FA00040F225510348FFF706FE00BF0837BD4653
:100FB00080BD00BF0010014080B582B000AF0121AC
:100FC0000120FFF745FC01210220FFF741FC0C2323
:100FD0003B6002233B7102237B710023BB71012321
:100FE000FB713B4619462148FFF7A4F94FF4C06353
:100FF0003B6002233B710123FB713B4619461B48B2
:10100000FFF798F9072202211848FFF73FFA072255
:1010100003211648FFF73AFA072209211348FFF780
:1010200035FA07220A211148FFF730FA4FF400730E
:101030003B6001233B710023BB710023FB713B46E6
:1010400019460B48FFF776F94FF480733B60012394
:101050003B710023BB710023FB713B4619460348DB
:10106000FFF768F900BF0837BD4680BD00000240A9
:101070000004024080B584B000AF01214FF400307D
:10108000FFF706FC3B461846FFF736FD4FF4E13309
:101090003B600023BB800023FB8000233B810023B7
:1010A000BB810C237B813B4619460848FFF76AFC4D
:1010B000012240F225510548FFF77DFD012103483B
:1010C000FFF737FD00BF1037BD4680BD004400402C
:1010D00080B584B000AF01211020FFF7F9FB3B463B
:1010E0001846FFF709FD4FF4E1333B600023BB8056
:1010F0000023FB8000233B810023BB810C237B81E9
:101100003B4619460848FFF73DFC012240F22551B5
:101110000548FFF750FD01210348FFF70AFD00BF16
:101120001037BD4680BD00BF0010014080B500AF44
:10113000FFF776FEFFF71CFE01234FF480721D4976
:101140001D4800F051F801234FF480721B491C48E0
:1011500000F04AF8FFF730FFFFF706FFFFF78AFFBE
:10116000FFF7B6FFFFF7DAFE43F69820FFF736FEEB
:10117000144800F0BBF8144800F0B8F8134800F029
:10118000B5F8134800F0B2F84FF47A70FFF726FE76
:10119000104800F0ABF8104800F0A8F80F4800F035
:1011A000A5F84FF47A70FFF719FE0D490D4800F0CD
:1011B00009F9FEE7E402002030050020B800002015
:1011C00014050020EC230008F0230008FC2300088D
:1011D00004240008102400082824000834240008EF
:1011E000442400085024000880B485B000AFF860A3
:1011F000B96011461A460B46FB801346BB80FB685C
:10120000BA681A60FB68FA881A81FB68BA885A8142
:10121000FB6800229A80FB680022DA8000BF143746
:10122000BD465DF8047B704780B487B000AFF860BE
:10123000B9607A6000237B6121E0FB689B88013301
:10124000FA68128993FBF2F102FB01F29B1A3B61EF
:10125000FB68DB881A463B699A4215D0FB681B681D
:10126000FA689288134479687A690A4412781A7085
:101270003B699AB2FB689A807B6901337B617A692A
:10128000BB689A42D9D300E000BF7B6918461C377F
:10129000BD465DF8047B704780B483B000AF7860D2
:1012A00039607B689A887B68DB889A4201D1002389
:1012B00015E07B681B687A68D28813441A783B680B
:1012C0001A707B68DB8801337A68128993FBF2F12C
:1012D00002FB01F29B1A9AB27B68DA80012318465E
:1012E0000C37BD465DF8047B7047000080B584B0C4
:1012F00000AF78602A4B00221A804FF496720021CA
:10130000284800F0DFFB7968274800F081FB274977
:10131000254800F07DFB2449254800F061FB254964
:10132000254800F075FB7968234800F071FB1F49E0
:10133000214800F06DFB2049204800F051FB40F6A9
:10134000B830FFF74BFD164B1B889BB2002B23D008
:101350001B49194800F05CFB1749184800F040FB96
:101360000023FB810AE0FB890E4AD35CDBB21946FD
:10137000124800F06AFBFB890133FB81084B1B8894
:101380009BB2FA899A42EED308490B4800F040FB21
:1013900009490A4800F024FB00BF1037BD4680BD54
:1013A000E4030020B8010020140500205C2400089C
:1013B0000010014060240008300500200044004077
:1013C0006824000880B59EB000AF78603960744929
:1013D000744800F01DFB7349734800F001FB73482B
:1013E000FFF784FF4FF47A70FFF7F8FC70496D48FF
:1013F00000F00EFB6B496C4800F0F2FA6D48FFF705
:1014000075FF4FF47A70FFF7E9FC6B49654800F00F
:10141000FFFA6449644800F0E3FA684B00221A803E
:101420004FF496720021664800F04CFB07F10C0067
:101430007B68644A642100F04DFB07F10C031846F9
:10144000FFF754FF40F6B830FFF7C8FC002387F8D9
:1014500073300023A7F876300FE0B7F87630584A9B
:10146000D35CDBB23E2B03D1012387F873300BE052
:10147000B7F876300133A7F87630504B1B889BB213
:10148000B7F876209A42E8D3002387F873304E49A4
:10149000444800F0BDFA4349434800F0A1FA474BE5
:1014A00000221A804FF496720021454800F00AFB92
:1014B0003968464800F0ACFA4449454800F090FAD3
:1014C0001A21434800F0C1FA4249364800F0A0FA18
:1014D0003449354800F084FA47F23050FFF77EFC7B
:1014E000364B1B889BB2002B4FD03B492D4800F058
:1014F0008FFA2C492C4800F073FA0023A7F87430B7
:101500000DE0B7F874302E4AD35CDBB2194626489A
:1015100000F09BFAB7F874300133A7F87430274B0A
:101520001B889BB2B7F874209A42EAD32B491D4816
:1015300000F06EFA1B491C4800F052FA2849204876
:1015400000F0FCFA0346002B06D126491C4800F0A7
:10155000F5FA0346002B08D02349124800F058FA48
:101560001049114800F03CFA17E02049144800F0F7
:10157000E5FA0346002B10D01D490A4800F048FA4E
:101580000849094800F02CFA07E01A49054800F01C
:101590003FFA0449044800F023FA7837BD4680BD7D
:1015A0007024000830050020004400409424000806
:1015B000A0240008C0240008CC240008E403002074
:1015C000B8010020EC240008FC24000814050020C9
:1015D00000100140182500082C2500085C24000894
:1015E0003C2500084425000848250008602500081F
:1015F0006825000880250008DFF834D0002103E0CA
:101600000C4B5B58435004310B480C4B42189A4228
:10161000F6D30B4A02E0002342F8043B094B9A42FE
:10162000F9D300F041F800F029FAFFF77FFD704789
:1016300000000120E02500080000002088000020B4
:101640008800002040050020FEE780B400AF00BF06
:10165000BD465DF8047B704780B400AFFEE780B400
:1016600000AFFEE780B400AFFEE780B400AFFEE756
:1016700080B400AF00BFBD465DF8047B704780B406
:1016800000AF00BFBD465DF8047B704780B400AF7B
:1016900000BFBD465DF8047B704780B400AF00BF5B
:1016A000BD465DF8047B704780B500AF164A164B07
:1016B000D3F8883043F47003C2F88830134A134BD0
:1016C0001B6843F001031360104B00229A600F4A1D
:1016D0000E4B1B6823F0847323F4803313600B4B91
:1016E0000B4A5A60094A094B1B6823F48023136094
:1016F000064B0022DA6000F089F8034B4FF00062DD
:101700009A6000BF80BD00BF00ED00E000380240DD
:101710001030002480B487B000AF00233B61002369
:101720007B610223FB600023BB6002237B60324BA2
:101730009B6803F00C033B613B69042B07D0082B2B
:1017400009D0002B3DD12D4B2D4A1A603DE02B4B8B
:101750002C4A1A6039E0284B5B689B0D03F00103AB
:10176000BB60254B5B6803F03F037B60BB68002BCD
:101770000CD0244A7B68B2FBF3F31F4A52689209EB
:10178000C2F3080202FB03F37B610BE01C4A7B6897
:10179000B2FBF3F3184A52689209C2F3080202FB43
:1017A00003F37B61144B5B681B0C03F003030133F1
:1017B0005B00FB607A69FB68B2FBF3F30F4A1360CE
:1017C00003E00E4B0E4A1A6000BF0B4B9B681B09CF
:1017D00003F00F030C4AD35CDBB23B61074B1A6882
:1017E0003B6922FA03F3054A136000BF1C37BD466C
:1017F0005DF8047B704700BF0038024010000020F5
:101800000024F40040787D011400002080B483B0EF
:1018100000AF00237B6000233B60364A354B1B68DA
:1018200043F480331360334B1B6803F400333B6095
:101830007B6801337B603B68002B03D17B68B3F589
:10184000A06FF0D12B4B1B6803F40033002B02D0A8
:1018500001233B6001E000233B603B68012B42D148
:10186000244A244B1B6C43F080531364224A224BBE
:101870001B6843F4404313601E4A1E4B9B689360F1
:101880001C4A1C4B9B6843F400439360194A194B54
:101890009B6843F4A0539360164B184A5A60154A4C
:1018A000144B1B6843F08073136000BF114B1B681F
:1018B00003F00073002BF9D0114B40F205721A604F
:1018C0000C4A0C4B9B6823F003039360094A094BB5
:1018D0009B6843F00203936000BF064B9B6803F0D4
:1018E0000C03082BF9D100BF0C37BD465DF8047B13
:1018F000704700BF00380240007000401954400794
:10190000003C024080B582B000AF40F2255114483F
:10191000FFF7B5F90346002B1DD01148FFF73BF93F
:101920000346FB710F4B1B889BB25A1C91B20D4AA8
:10193000118019460C4AFB7953540A4B1B889BB201
:10194000B3F5967F02D3074B00221A8040F225514F
:101950000348FFF7EFF900BF0837BD4680BD00BF61
:1019600000100140E4030020B801002080B582B0DF
:1019700000AF40F225511648FFF781F90346002BCE
:1019800022D01348FFF707F90346FB71FB7919468C
:10199000104800F05AF8104B1B889BB25A1C91B2A9
:1019A0000D4A118019460D4AFB7953540A4B1B8886
:1019B0009BB2B3F5967F02D3074B00221A8040F208
:1019C00025510348FFF7B6F900BF0837BD4680BD73
:1019D000004400400010014020050020E8030020E2
:1019E00080B584B000AF7860396004E0FB7B1946B5
:1019F000786800F02AF807F10F0319463868FFF7F6
:101A00004BFC0346002BF1D100BF1037BD4680BD13
:101A100080B584B000AF786039600023FB600AE0D5
:101A2000FB683A6813441A4601217868FFF7FCFB0B
:101A3000FB680133FB60FB683A6813441B78002B9A
:101A4000EED100BF1037BD4680BD80B582B000AF7B
:101A500078600B46FB7000BF80217868FFF7F3F8D1
:101A60000346002BF8D0FB789BB219467868FFF745
:101A700080F800BF0837BD4680BD000070B50D4E30
:101A80000D4CA41BA4100025A54209D10B4E0C4CF3
:101A900000F076FCA41BA4100025A54205D170BD62
:101AA00056F8253098470135EEE756F82530984727
:101AB0000135F2E7D8250008D8250008D825000808
:101AC000DC25000802440346934200D1704703F826
:101AD000011BF9E70CB430B5174B0C1E9DB01D6807
:101AE00008DA8B232B604FF0FF301DB0BDE830408B
:101AF00002B070474FF40273ADF8143014BF04F114
:101B0000FF332346049307934FF6FF73029006902A
:101B1000ADF81630209A21AB02A92846019300F0B7
:101B200083F8431CBCBF8B232B60002CDDD0029BB1
:101B300000221A70D9E700BF24000020F0B5037816
:101B400033B1034618465E1C1B7833B91846F0BD06
:101B50000B78002B18BF0020F0BD4D1E441E15F859
:101B6000012F002AF3D014F8017F97423346F6D0B4
:101B7000E8E72DE9F0478E689E4282460C46914682
:101B8000984635D88A8912F4906F31D02568096952
:101B90006F1A6569022305EB450595FBF3F508F11E
:101BA00001033B449D4238BF1D46530531D52946AC
:101BB00000F038FB064650B90C23CAF80030A38960
:101BC00043F04003A3814FF0FF30BDE8F0873A4671
:101BD000216900F0B3FAA38923F4906343F08003F2
:101BE000A381266165613E44ED1B2660A5604646E3
:101BF000464528BF464632464946206800F0A9FAC5
:101C0000A3689B1BA36023681E4426600020BDE8D8
:101C1000F0872A4600F064FB06460028E1D12169DE
:101C2000504600F0B1FAC7E72DE9F04F9DB080466D
:101C300003938B891C060D4616460FD50B696BB9AD
:101C4000402100F0EFFA2860286128B90C23C8F879
:101C500000304FF0FF30C5E040236B610023099353
:101C600020238DF8293030238DF82A304FF0010BD6
:101C700037463C4614F8013B002B3CD1B7EB060A33
:101C80000BD05346324629464046FFF772FF0130DB
:101C900000F0A380099B534409933B78002B00F08C
:101CA0009C8000234FF0FF32049307930592069324
:101CB0008DF853301A93052221785048FEF788FAA0
:101CC000671C049BD8B9D90644BF20228DF8532045
:101CD0001A0744BF2B228DF8532022782A2A16D0C7
:101CE000079A00210A20274601343B78303B092B14
:101CF00051D9C9B111E0252BC0D02746B9E73F4AD9
:101D0000801A0BFA00F0184304903C46D3E7039A7C
:101D1000111D12680391002A01DB079204E0524270
:101D200043F00203079204933B782E2B0ED17B786D
:101D30002A2B07F1010132D1039B1A1D1B68039264
:101D4000002BB8BF4FF0FF33023705932C4C397886
:101D500003222046FEF73CFA38B14023001B03FA69
:101D600000F0049B034304930137397825488DF82C
:101D7000281006227E1CFEF72BFA002835D0224BB5
:101D8000FBB9039B073323F0070308330393099B35
:101D90004B4409936CE700FB02320121A3E70023C7
:101DA000059318460A240F4601313A78303A092A39
:101DB00003D9002BCAD00590C8E704FB00200123FB
:101DC000F1E703AB00932A46104B04A94046AFF35A
:101DD0000080B0F1FF3F8146D9D1AB895B063FF56A
:101DE00038AF09981DB0BDE8F08F03AB00932A46C9
:101DF000064B04A9404600F081F8EAE7A325000855
:101E0000A9250008AD25000800000000731B00088C
:101E10002DE9F04791461F468A680B69DDF820805E
:101E20009342B8BF1346C9F8003091F843200646E4
:101E30000C4612B10133C9F800302368990642BF3D
:101E4000D9F800300233C9F80030256815F00605CE
:101E500007D104F1190AE368D9F800209B1A9D42C2
:101E600029DB94F843302268003318BF012392061F
:101E70002ED404F1430239463046C047013021D008
:101E80002368E568D9F8002003F00603042B08BF97
:101E9000AD1AA36822690CBF25EAE57500259342B7
:101EA000C4BF9B1AED184FF000091A344D451BD1E1
:101EB0000020BDE8F0870123524639463046C0472E
:101EC000013003D14FF0FF30BDE8F0870135C2E7A4
:101ED000E1185A1C302081F84300224494F8451040
:101EE00082F843100233C4E70123224639463046C4
:101EF000C0470130E6D009F10109D7E72DE9F043E9
:101F000017460A7E85B06E2A984606460C460C9BFC
:101F100001F1430E00F0BC801AD8632A2ED00AD8F3
:101F2000002A00F0C880582A00F08A8004F1420597
:101F300084F842202AE0642A01D0692AF6D1216877
:101F40001A6811F0800F23D0111D1960136827E063
:101F5000732A00F0B48008D86F2A2AD0702AE5D1FD
:101F60000A6842F020020A6003E0752A21D0782A2C
:101F7000DCD1782284F845206E4964E01A6801F1CA
:101F80004205111D1960136884F842300123A3E053
:101F900011F0400F02F104011960D7D0B2F90030FE
:101FA000002B03DA2D225B4284F8432062490A2287
:101FB00017E02068196810F0800F03D0081D186022
:101FC0000B6806E010F0400F01F104001860F7D034
:101FD0000B8859496F2A14BF0A220822002084F86E
:101FE00043006568A560002DC0F29C80206820F049
:101FF00004002060002B3FD1002D40F095807546F5
:10200000082A0BD12368DA0708D5236962689A4247
:10201000DEBF302305F8013C05F1FF35AEEB0503CB
:102020002361CDF800803B4603AA21463046FFF7E6
:10203000EFFE013055D14FF0FF3005B0BDE8F08321
:1020400081F845203C492268186812F0800F00F1A1
:1020500004051D6001D0036802E05506FBD5038826
:10206000D00744BF42F0200222601BB9226822F050
:10207000200222601022B1E77546B3FBF2F002FBAA
:102080001033CB5C05F8013D03460028F5D1B7E7D6
:1020900008681A68496910F0800F04D0101D186094
:1020A0001368196007E010F0400F02F10400186097
:1020B0001368F6D01980002323617546B1E71A68CA
:1020C000111D19601568626800212846FEF780F826
:1020D00008B1401B606063682361002384F84330CB
:1020E0009FE723692A4639463046C0470130A2D0CF
:1020F00023689B0707D5002504F11909E368039AB3
:102100009B1A9D4205DBE068039B9842B8BF1846C6
:1021100093E701234A4639463046C04701308AD00A
:102120000135EBE7002BA7D10B7884F8423004F19E
:10213000420565E7C5250008B425000810B5431E13
:102140000A44914200D110BD11F8014B03F8014F30
:10215000F7E7884210B501EB020303D8421E99420B
:102160000CD110BD9842F9D28118D21AD34200D1B5
:1021700010BD13F8014D01F8014DF7E711F8014BBF
:1021800002F8014FEBE7000038B50546002945D0BD
:1021900051F8043C0C1F002BB8BFE41800F0D6F82F
:1021A0001F4A1368104633B9636014602846BDE8BF
:1021B000384000F0CCB8A3420CD921686218934291
:1021C00004BF1A685B68636004BF52182260046031
:1021D000ECE713465A680AB1A242FAD919685818AE
:1021E000A0420BD120680144581882421960DDD109
:1021F000106852685A6001441960D7E702D90C236D
:102200002B60D3E7206821188A4204BF1168526806
:10221000626004BF091821605C60C7E738BD00BF79
:10222000AC00002070B5CD1C25F0030508350C2D41
:1022300038BF0C25002D064601DBA94203D90C232B
:102240003360002070BD00F081F8234A14682146F5
:1022500091B9224C23681BB9304600F067F8206022
:102260002946304600F062F8431C26D10C23336027
:10227000304600F06CF8E4E70B685B1B1AD40B2BBC
:102280000FD90B60CD50CC18304600F060F804F147
:102290000B00231D20F00700C31A1BD05A42E25046
:1022A00070BD8C420DBF63684B686360136018BFDC
:1022B0000C46E9E70C464968CAE7C41C24F003044D
:1022C000A04205D0211A304600F030F80130CDD0C0
:1022D0002560D9E770BD00BFAC000020B000002031
:1022E000F8B5074614460E4621B91146BDE8F84038
:1022F000FFF798BF22B9FFF747FF25462846F8BDEC
:1023000000F026F884420FD921463846FFF78AFFAD
:1023100005460028F2D031462246FFF70FFF31462E
:102320003846FFF731FFE9E73546E7E738B5064CB1
:10233000002305460846236000F014F8431C02D130
:10234000236803B12B6038BD3C05002070477047FF
:1023500051F8040C0028A0F10400BCBF0B58C018B1
:1023600070470000044B1968024609B90349196017
:10237000186802441A607047B4000020400500202D
:10238000F8B500BFF8BC08BC9E467047F8B500BF62
:08239000F8BC08BC9E46704732
:102398004D6F64756C2064616E67206B686F69208F
:1023A800646F6E670D0A00004D6F64756C20736969
:1023B8006D2064616E67206F6E0D0A004D6F647545
:1023C8006C20636875616E206269207461740D0AFF
:1023D800000000004D6F64756C20646120746174A6
:1023E8000D0A00004154000041542B4350494E3F10
:1023F8000000000041542B435351000041542B432B
:102408005245473F0000000041542B43504D533D77
:1024180022534D222C22534D222C22534D220000B0
:1024280041542B434D47463D3100000041542B4356
:102438005343533D2247534D22000000616C6F20E7
:10244800616C6F20616C6F00303338363132363949
:10245800383500000D0A00004775693A2000000071
:102468004E68616E3A2000005B534D535D204B6906
:10247800656D20747261207472616E672074686182
:1024880069206D616E672E2E2E0D0A0041542B4374
:102498005245473F000000005B534D535D204368A1
:1024A8007579656E2063686520646F20746578743B
:1024B8002E2E2E0D0A00000041542B434D47463D59
:1024C800310000005B534D535D204261742064610C
:1024D80075206775692074696E206E68616E2E2E8E
:1024E8002E0D0A0041542B434D47533D222573229C
:1024F800000000005B534D535D204461206E68610D
:102508006E2070726F6D707420273E270D0A0000D0
:102518005B534D535D2044616E67206775692E2EAD
:102528002E0D0A005B534D535D204B657420717569
:10253800613A20002B434D47533A00004F4B0000AF
:102548005B534D535D20475549205448414E482020
:10255800434F4E47210D0A004552524F520000008A
:102568005B534D535D204755492054484154204200
:102578004149210D0A0000005B4552524F525D202F
:102588004B686F6E67206E68616E2064756F63209C
:102598006B657420717561210D0A00232D302B2085
:1025A80000686C4C00656667454647003031323339
:1025B80034353637383941424344454600303132A4
:1025C8003334353637383961626364656600000034
:0425D800B501000841
:0425DC009101000861
:1025E00000000000010203040102030406070809B9
:1025F000007A030A0000000000000000010203044A
:102600000607080928000020000000000000000064
:1026100000000000000000000000000000000000BA
:1026200000000000000000000000000000000000AA
:10263000000000000000000000000000000000009A
:10264000000000000000000000000000000000008A
:10265000000000000000000000000000000000007A
:08266000000000000000000072
:04000005080015F9E1
:00000001FF
